{
  "_format": "hh-sol-artifact-1",
  "contractName": "ZkMLAirdrop",
  "sourceName": "contracts/zkMLAirdrop.sol",
  "abi": [
    {
      "inputs": [
        {
          "internalType": "contract IERC20",
          "name": "_token",
          "type": "address"
        },
        {
          "internalType": "contract IVerifier",
          "name": "_verifier",
          "type": "address"
        }
      ],
      "stateMutability": "nonpayable",
      "type": "constructor"
    },
    {
      "anonymous": false,
      "inputs": [
        {
          "indexed": false,
          "internalType": "address",
          "name": "beneficiary",
          "type": "address"
        },
        {
          "indexed": false,
          "internalType": "uint256",
          "name": "amount",
          "type": "uint256"
        }
      ],
      "name": "ClaimRewards",
      "type": "event"
    },
    {
      "anonymous": false,
      "inputs": [
        {
          "indexed": true,
          "internalType": "address",
          "name": "previousOwner",
          "type": "address"
        },
        {
          "indexed": true,
          "internalType": "address",
          "name": "newOwner",
          "type": "address"
        }
      ],
      "name": "OwnershipTransferred",
      "type": "event"
    },
    {
      "anonymous": false,
      "inputs": [
        {
          "indexed": false,
          "internalType": "uint256",
          "name": "airdropID",
          "type": "uint256"
        }
      ],
      "name": "SubmitAirdropParameters",
      "type": "event"
    },
    {
      "inputs": [],
      "name": "MAX_ZKML_POINTS",
      "outputs": [
        {
          "internalType": "uint256",
          "name": "",
          "type": "uint256"
        }
      ],
      "stateMutability": "view",
      "type": "function"
    },
    {
      "inputs": [],
      "name": "airdropCount",
      "outputs": [
        {
          "internalType": "uint256",
          "name": "",
          "type": "uint256"
        }
      ],
      "stateMutability": "view",
      "type": "function"
    },
    {
      "inputs": [
        {
          "internalType": "uint256",
          "name": "airdropID",
          "type": "uint256"
        },
        {
          "internalType": "uint256",
          "name": "",
          "type": "uint256"
        }
      ],
      "name": "airdropMap",
      "outputs": [
        {
          "internalType": "uint128",
          "name": "zkMLPoints",
          "type": "uint128"
        },
        {
          "internalType": "uint128",
          "name": "allocation",
          "type": "uint128"
        }
      ],
      "stateMutability": "view",
      "type": "function"
    },
    {
      "inputs": [
        {
          "internalType": "address",
          "name": "beneficiary",
          "type": "address"
        },
        {
          "internalType": "uint256",
          "name": "airdropID",
          "type": "uint256"
        }
      ],
      "name": "airdropPerUserBitMap",
      "outputs": [
        {
          "internalType": "uint256",
          "name": "bitmap",
          "type": "uint256"
        }
      ],
      "stateMutability": "view",
      "type": "function"
    },
    {
      "inputs": [
        {
          "internalType": "address",
          "name": "beneficiary",
          "type": "address"
        }
      ],
      "name": "claimRewards",
      "outputs": [],
      "stateMutability": "nonpayable",
      "type": "function"
    },
    {
      "inputs": [
        {
          "internalType": "address",
          "name": "beneficiary",
          "type": "address"
        }
      ],
      "name": "claimableBalances",
      "outputs": [
        {
          "internalType": "uint256",
          "name": "claimableBalance",
          "type": "uint256"
        }
      ],
      "stateMutability": "view",
      "type": "function"
    },
    {
      "inputs": [
        {
          "internalType": "uint256",
          "name": "airdropID",
          "type": "uint256"
        }
      ],
      "name": "getAirdropParameters",
      "outputs": [
        {
          "components": [
            {
              "internalType": "uint128",
              "name": "zkMLPoints",
              "type": "uint128"
            },
            {
              "internalType": "uint128",
              "name": "allocation",
              "type": "uint128"
            }
          ],
          "internalType": "struct ZkMLAirdrop.AllocationParameters[]",
          "name": "",
          "type": "tuple[]"
        }
      ],
      "stateMutability": "view",
      "type": "function"
    },
    {
      "inputs": [
        {
          "internalType": "address",
          "name": "beneficiary",
          "type": "address"
        },
        {
          "internalType": "uint256",
          "name": "airdropID",
          "type": "uint256"
        }
      ],
      "name": "getClaimableBalance",
      "outputs": [
        {
          "internalType": "uint256",
          "name": "",
          "type": "uint256"
        }
      ],
      "stateMutability": "view",
      "type": "function"
    },
    {
      "inputs": [
        {
          "internalType": "address",
          "name": "beneficiary",
          "type": "address"
        }
      ],
      "name": "getCurrentClaimableBalance",
      "outputs": [
        {
          "internalType": "uint256",
          "name": "",
          "type": "uint256"
        }
      ],
      "stateMutability": "view",
      "type": "function"
    },
    {
      "inputs": [
        {
          "internalType": "address",
          "name": "beneficiary",
          "type": "address"
        },
        {
          "internalType": "uint256",
          "name": "aidropID",
          "type": "uint256"
        }
      ],
      "name": "isClaimed",
      "outputs": [
        {
          "internalType": "bool",
          "name": "",
          "type": "bool"
        }
      ],
      "stateMutability": "view",
      "type": "function"
    },
    {
      "inputs": [],
      "name": "owner",
      "outputs": [
        {
          "internalType": "address",
          "name": "",
          "type": "address"
        }
      ],
      "stateMutability": "view",
      "type": "function"
    },
    {
      "inputs": [],
      "name": "renounceOwnership",
      "outputs": [],
      "stateMutability": "nonpayable",
      "type": "function"
    },
    {
      "inputs": [
        {
          "components": [
            {
              "internalType": "uint128",
              "name": "zkMLPoints",
              "type": "uint128"
            },
            {
              "internalType": "uint128",
              "name": "allocation",
              "type": "uint128"
            }
          ],
          "internalType": "struct ZkMLAirdrop.AllocationParameters[]",
          "name": "allocationParameters",
          "type": "tuple[]"
        }
      ],
      "name": "submitAirdropParameters",
      "outputs": [],
      "stateMutability": "nonpayable",
      "type": "function"
    },
    {
      "inputs": [],
      "name": "token",
      "outputs": [
        {
          "internalType": "contract IERC20",
          "name": "",
          "type": "address"
        }
      ],
      "stateMutability": "view",
      "type": "function"
    },
    {
      "inputs": [
        {
          "internalType": "address",
          "name": "newOwner",
          "type": "address"
        }
      ],
      "name": "transferOwnership",
      "outputs": [],
      "stateMutability": "nonpayable",
      "type": "function"
    },
    {
      "inputs": [],
      "name": "verifier",
      "outputs": [
        {
          "internalType": "contract IVerifier",
          "name": "",
          "type": "address"
        }
      ],
      "stateMutability": "view",
      "type": "function"
    },
    {
      "inputs": [
        {
          "internalType": "address",
          "name": "beneficiary",
          "type": "address"
        },
        {
          "internalType": "bytes32[24]",
          "name": "proof",
          "type": "bytes32[24]"
        },
        {
          "internalType": "uint256[4]",
          "name": "pubSignals",
          "type": "uint256[4]"
        }
      ],
      "name": "verifyUserAllocation",
      "outputs": [],
      "stateMutability": "nonpayable",
      "type": "function"
    },
    {
      "inputs": [
        {
          "internalType": "address[]",
          "name": "beneficiaryArray",
          "type": "address[]"
        },
        {
          "internalType": "bytes32[24][]",
          "name": "proofArray",
          "type": "bytes32[24][]"
        },
        {
          "internalType": "uint256[4][]",
          "name": "pubSignalsArray",
          "type": "uint256[4][]"
        }
      ],
      "name": "verifyUserAllocations",
      "outputs": [],
      "stateMutability": "nonpayable",
      "type": "function"
    },
    {
      "inputs": [
        {
          "internalType": "address",
          "name": "beneficiary",
          "type": "address"
        }
      ],
      "name": "zkMLPointsMap",
      "outputs": [
        {
          "internalType": "uint256",
          "name": "zkMLPoints",
          "type": "uint256"
        }
      ],
      "stateMutability": "view",
      "type": "function"
    }
  ],
  "bytecode": "0x60a060405234801562000010575f80fd5b50604051620019f2380380620019f28339810160408190526200003391620000ce565b6200003e3362000067565b6001600160a01b03918216608052600680546001600160a01b031916919092161790556200010b565b5f80546001600160a01b038381166001600160a01b0319831681178455604051919092169283917f8be0079c531659141344cd1fd0a4f28419497f9722a3daafe3b4186f6b6457e09190a35050565b6001600160a01b0381168114620000cb575f80fd5b50565b5f8060408385031215620000e0575f80fd5b8251620000ed81620000b6565b60208401519092506200010081620000b6565b809150509250929050565b6080516118c76200012b5f395f81816103720152610c1c01526118c75ff3fe608060405234801561000f575f80fd5b5060043610610149575f3560e01c8063715018a6116100c7578063e952f74f1161007d578063f2fde38b11610063578063f2fde38b1461035a578063fc0c546a1461036d578063fc8f1b8e14610394575f80fd5b8063e952f74f1461033e578063ef5cfb8c14610347575f80fd5b80638da5cb5b116100ad5780638da5cb5b146102fb578063a077ea2c14610318578063d00ce3b51461032b575f80fd5b8063715018a6146102e05780638ae8f009146102e8575f80fd5b8063375582b21161011c578063562beba811610102578063562beba814610231578063624f26651461029757806368c8278f146102c1575f80fd5b8063375582b2146101fd57806350c4478f14610212575f80fd5b8063034660441461014d5780630e0047541461018e578063229dcc07146101af5780632b7ac3f3146101b8575b5f80fd5b61016061015b3660046112dc565b6103b4565b604080516fffffffffffffffffffffffffffffffff9384168152929091166020830152015b60405180910390f35b6101a161019c366004611324565b610409565b604051908152602001610185565b6101a161271081565b6006546101d89073ffffffffffffffffffffffffffffffffffffffff1681565b60405173ffffffffffffffffffffffffffffffffffffffff9091168152602001610185565b61021061020b36600461149e565b6104ea565b005b6101a161022036600461158b565b60036020525f908152604090205481565b61028761023f366004611324565b73ffffffffffffffffffffffffffffffffffffffff919091165f908152600460209081526040808320600885901c8452909152902054600160ff9092169190911b9081161490565b6040519015158152602001610185565b6101a16102a5366004611324565b600460209081525f928352604080842090915290825290205481565b6101a16102cf36600461158b565b60056020525f908152604090205481565b610210610685565b6102106102f63660046115a4565b610698565b5f5473ffffffffffffffffffffffffffffffffffffffff166101d8565b610210610326366004611613565b610809565b6101a161033936600461158b565b610ab3565b6101a160015481565b61021061035536600461158b565b610ac9565b61021061036836600461158b565b610c97565b6101d87f000000000000000000000000000000000000000000000000000000000000000081565b6103a76103a23660046116c6565b610d4e565b60405161018591906116dd565b6002602052815f5260405f2081815481106103cd575f80fd5b5f918252602090912001546fffffffffffffffffffffffffffffffff808216935070010000000000000000000000000000000090910416905082565b5f81815260026020908152604080832073ffffffffffffffffffffffffffffffffffffffff86168452600390925282205480830361044b575f925050506104e4565b5f805b83548110156104de5783818154811061046957610469611741565b5f918252602090912001546fffffffffffffffffffffffffffffffff1683116104d65783818154811061049e5761049e611741565b5f9182526020909120015470010000000000000000000000000000000090046fffffffffffffffffffffffffffffffff1691506104de565b60010161044e565b50925050505b92915050565b6104f2610de9565b84518314610587576040517f08c379a000000000000000000000000000000000000000000000000000000000815260206004820152603e60248201527f5a6b4d4c41697264726f703a3a76657269667955736572416c6c6f636174696f60448201527f6e3a206172726179206c656e67746820646f6573206e6f74206d61746368000060648201526084015b60405180910390fd5b84518114610617576040517f08c379a000000000000000000000000000000000000000000000000000000000815260206004820152603e60248201527f5a6b4d4c41697264726f703a3a76657269667955736572416c6c6f636174696f60448201527f6e3a206172726179206c656e67746820646f6573206e6f74206d617463680000606482015260840161057e565b5f5b855181101561067d5761067586828151811061063757610637611741565b602002602001015186868481811061065157610651611741565b9050610300020185858581811061066a5761066a611741565b905060800201610698565b600101610619565b505050505050565b61068d610de9565b6106965f610e69565b565b6106a0610de9565b6006546040517f82dce4b100000000000000000000000000000000000000000000000000000000815273ffffffffffffffffffffffffffffffffffffffff909116906382dce4b1906106f8908590859060040161176e565b602060405180830381865afa158015610713573d5f803e3d5ffd5b505050506040513d601f19601f820116820180604052508101906107379190611789565b15156001146107c8576040517f08c379a000000000000000000000000000000000000000000000000000000000815260206004820152602f60248201527f5a6b4d4c41697264726f703a3a76657269667955736572416c6c6f636174696f60448201527f6e3a2050726f6f66206661696c65640000000000000000000000000000000000606482015260840161057e565b60608101356127108111156107dc57506127105b73ffffffffffffffffffffffffffffffffffffffff9093165f908152600360205260409020929092555050565b610811610de9565b60018054905f610820836117a8565b90915550506001545f81815260026020526040812090805b84518110156109c25784818151811061085357610853611741565b60200260200101515f01516fffffffffffffffffffffffffffffffff168210610924576040517f08c379a000000000000000000000000000000000000000000000000000000000815260206004820152605060248201527f5a6b4d4c41697264726f703a3a7375626d697441697264726f70506172616d6560448201527f746572733a20616c6c6f636174696f6e506172616d657465727320417272617960648201527f206d757374206265206f72646572656400000000000000000000000000000000608482015260a40161057e565b84818151811061093657610936611741565b60200260200101515f01516fffffffffffffffffffffffffffffffff1691508285828151811061096857610968611741565b6020908102919091018101518254600181810185555f94855293839020825192909301516fffffffffffffffffffffffffffffffff9081167001000000000000000000000000000000000292169190911791015501610838565b506127108114610a7a576040517f08c379a000000000000000000000000000000000000000000000000000000000815260206004820152604e60248201527f5a6b4d4c41697264726f703a3a7375626d697441697264726f70506172616d6560448201527f746572733a206c61737420656c656d656e74206d75737420626520746865204d60648201527f41585f5a4b4d4c5f504f494e5453000000000000000000000000000000000000608482015260a40161057e565b6040518381527f746e6781de69f9fae034a6dcd1758a7dfbf68c71289f6b0226aedbbd26691edf9060200160405180910390a150505050565b6001545f90610ac28382610409565b9392505050565b6001545f819003610b5c576040517f08c379a000000000000000000000000000000000000000000000000000000000815260206004820152603c60248201527f5a6b4d4c41697264726f703a3a7375626d697441697264726f70506172616d6560448201527f746572733a2054686572652773206e6f2061697264726f702079657400000000606482015260840161057e565b610b668282610edd565b5f610b718383610409565b9050805f03610c02576040517f08c379a000000000000000000000000000000000000000000000000000000000815260206004820152603860248201527f5a6b4d4c41697264726f703a3a7375626d697441697264726f70506172616d6560448201527f746572733a204e6f20746f6b656e7320746f20636c61696d0000000000000000606482015260840161057e565b610c4373ffffffffffffffffffffffffffffffffffffffff7f0000000000000000000000000000000000000000000000000000000000000000168483610f34565b6040805173ffffffffffffffffffffffffffffffffffffffff85168152602081018390527f1f89f96333d3133000ee447473151fa9606543368f02271c9d95ae14f13bcc67910160405180910390a1505050565b610c9f610de9565b73ffffffffffffffffffffffffffffffffffffffff8116610d42576040517f08c379a000000000000000000000000000000000000000000000000000000000815260206004820152602660248201527f4f776e61626c653a206e6577206f776e657220697320746865207a65726f206160448201527f6464726573730000000000000000000000000000000000000000000000000000606482015260840161057e565b610d4b81610e69565b50565b606060025f8381526020019081526020015f20805480602002602001604051908101604052809291908181526020015f905b82821015610dde575f84815260209081902060408051808201909152908401546fffffffffffffffffffffffffffffffff80821683527001000000000000000000000000000000009091041681830152825260019092019101610d80565b505050509050919050565b5f5473ffffffffffffffffffffffffffffffffffffffff163314610696576040517f08c379a000000000000000000000000000000000000000000000000000000000815260206004820181905260248201527f4f776e61626c653a2063616c6c6572206973206e6f7420746865206f776e6572604482015260640161057e565b5f805473ffffffffffffffffffffffffffffffffffffffff8381167fffffffffffffffffffffffff0000000000000000000000000000000000000000831681178455604051919092169283917f8be0079c531659141344cd1fd0a4f28419497f9722a3daafe3b4186f6b6457e09190a35050565b73ffffffffffffffffffffffffffffffffffffffff82165f908152600460209081526040808320600885901c808552925282208054600160ff861690811b918218928390559293909190818316900361067d575f80fd5b6040805173ffffffffffffffffffffffffffffffffffffffff8416602482015260448082018490528251808303909101815260649091019091526020810180517bffffffffffffffffffffffffffffffffffffffffffffffffffffffff167fa9059cbb00000000000000000000000000000000000000000000000000000000179052610fc1908490610fc6565b505050565b5f611027826040518060400160405280602081526020017f5361666545524332303a206c6f772d6c6576656c2063616c6c206661696c65648152508573ffffffffffffffffffffffffffffffffffffffff166110d39092919063ffffffff16565b905080515f14806110475750808060200190518101906110479190611789565b610fc1576040517f08c379a000000000000000000000000000000000000000000000000000000000815260206004820152602a60248201527f5361666545524332303a204552433230206f7065726174696f6e20646964206e60448201527f6f74207375636365656400000000000000000000000000000000000000000000606482015260840161057e565b60606110e184845f856110e9565b949350505050565b60608247101561117b576040517f08c379a000000000000000000000000000000000000000000000000000000000815260206004820152602660248201527f416464726573733a20696e73756666696369656e742062616c616e636520666f60448201527f722063616c6c0000000000000000000000000000000000000000000000000000606482015260840161057e565b5f808673ffffffffffffffffffffffffffffffffffffffff1685876040516111a39190611826565b5f6040518083038185875af1925050503d805f81146111dd576040519150601f19603f3d011682016040523d82523d5f602084013e6111e2565b606091505b50915091506111f3878383876111fe565b979650505050505050565b606083156112935782515f0361128c5773ffffffffffffffffffffffffffffffffffffffff85163b61128c576040517f08c379a000000000000000000000000000000000000000000000000000000000815260206004820152601d60248201527f416464726573733a2063616c6c20746f206e6f6e2d636f6e7472616374000000604482015260640161057e565b50816110e1565b6110e183838151156112a85781518083602001fd5b806040517f08c379a000000000000000000000000000000000000000000000000000000000815260040161057e9190611841565b5f80604083850312156112ed575f80fd5b50508035926020909101359150565b803573ffffffffffffffffffffffffffffffffffffffff8116811461131f575f80fd5b919050565b5f8060408385031215611335575f80fd5b61133e836112fc565b946020939093013593505050565b7f4e487b71000000000000000000000000000000000000000000000000000000005f52604160045260245ffd5b6040805190810167ffffffffffffffff8111828210171561139c5761139c61134c565b60405290565b604051601f82017fffffffffffffffffffffffffffffffffffffffffffffffffffffffffffffffe016810167ffffffffffffffff811182821017156113e9576113e961134c565b604052919050565b5f67ffffffffffffffff82111561140a5761140a61134c565b5060051b60200190565b5f8083601f840112611424575f80fd5b50813567ffffffffffffffff81111561143b575f80fd5b60208301915083602061030083028501011115611456575f80fd5b9250929050565b5f8083601f84011261146d575f80fd5b50813567ffffffffffffffff811115611484575f80fd5b6020830191508360208260071b8501011115611456575f80fd5b5f805f805f606086880312156114b2575f80fd5b853567ffffffffffffffff808211156114c9575f80fd5b818801915088601f8301126114dc575f80fd5b813560206114f16114ec836113f1565b6113a2565b82815260059290921b8401810191818101908c84111561150f575f80fd5b948201945b8386101561153457611525866112fc565b82529482019490820190611514565b99505089013592505080821115611549575f80fd5b61155589838a01611414565b9096509450604088013591508082111561156d575f80fd5b5061157a8882890161145d565b969995985093965092949392505050565b5f6020828403121561159b575f80fd5b610ac2826112fc565b5f805f6103a08085870312156115b8575f80fd5b6115c1856112fc565b93506103208501868111156115d4575f80fd5b6020860193508682870111156115e8575f80fd5b80925050509250925092565b80356fffffffffffffffffffffffffffffffff8116811461131f575f80fd5b5f6020808385031215611624575f80fd5b823567ffffffffffffffff81111561163a575f80fd5b8301601f8101851361164a575f80fd5b80356116586114ec826113f1565b81815260069190911b82018301908381019087831115611676575f80fd5b928401925b828410156111f35760408489031215611692575f80fd5b61169a611379565b6116a3856115f4565b81526116b08686016115f4565b818701528252604093909301929084019061167b565b5f602082840312156116d6575f80fd5b5035919050565b602080825282518282018190525f919060409081850190868401855b8281101561173457815180516fffffffffffffffffffffffffffffffff908116865290870151168685015292840192908501906001016116f9565b5091979650505050505050565b7f4e487b71000000000000000000000000000000000000000000000000000000005f52603260045260245ffd5b61038081016103008085843760808482850137509392505050565b5f60208284031215611799575f80fd5b81518015158114610ac2575f80fd5b5f7fffffffffffffffffffffffffffffffffffffffffffffffffffffffffffffffff82036117fd577f4e487b71000000000000000000000000000000000000000000000000000000005f52601160045260245ffd5b5060010190565b5f5b8381101561181e578181015183820152602001611806565b50505f910152565b5f8251611837818460208701611804565b9190910192915050565b602081525f825180602084015261185f816040850160208701611804565b601f017fffffffffffffffffffffffffffffffffffffffffffffffffffffffffffffffe016919091016040019291505056fea2646970667358221220931faaa086c80111bbfae0fc585da65e225fd6db532e4be1c683a9fea5d5466364736f6c63430008170033",
  "linkReferences": {},
  "deployedLinkReferences": {}
}